{
  "contractName": "DocumentVerification",
  "abi": [
    {
      "anonymous": false,
      "inputs": [
        {
          "indexed": false,
          "internalType": "string",
          "name": "fileHash",
          "type": "string"
        },
        {
          "indexed": false,
          "internalType": "uint256",
          "name": "timestamp",
          "type": "uint256"
        }
      ],
      "name": "DocumentAdded",
      "type": "event"
    },
    {
      "inputs": [
        {
          "internalType": "string",
          "name": "_fileHash",
          "type": "string"
        }
      ],
      "name": "addDocument",
      "outputs": [],
      "stateMutability": "nonpayable",
      "type": "function"
    },
    {
      "inputs": [
        {
          "internalType": "string",
          "name": "_fileHash",
          "type": "string"
        }
      ],
      "name": "verifyDocument",
      "outputs": [
        {
          "internalType": "bool",
          "name": "",
          "type": "bool"
        },
        {
          "internalType": "uint256",
          "name": "",
          "type": "uint256"
        }
      ],
      "stateMutability": "view",
      "type": "function",
      "constant": true
    }
  ],
  "bytecode": "0x608060405234801561001057600080fd5b506106e3806100206000396000f3fe608060405234801561001057600080fd5b50600436106100365760003560e01c8063beee5eb71461003b578063f740e0451461006c575b600080fd5b61005560048036038101906100509190610393565b610088565b6040516100639291906104b3565b60405180910390f35b61008660048036038101906100819190610393565b610180565b005b6000806000808460405161009c919061049c565b90815260200160405180910390206040518060400160405290816000820180546100c59061060c565b80601f01602080910402602001604051908101604052809291908181526020018280546100f19061060c565b801561013e5780601f106101135761010080835404028352916020019161013e565b820191906000526020600020905b81548152906001019060200180831161012157829003601f168201915b5050505050815260200160018201548152505090506000816000015151141561016e57600080925092505061017b565b6001816020015192509250505b915091565b60008082604051610191919061049c565b908152602001604051809103902060000180546101ad9061060c565b9050146101ef576040517f08c379a00000000000000000000000000000000000000000000000000000000081526004016101e69061050c565b60405180910390fd5b604051806040016040528082815260200142815250600082604051610214919061049c565b9081526020016040518091039020600082015181600001908051906020019061023e929190610288565b50602082015181600101559050507faf3fa066196f7e740d26c19414028cb0e3a456ed55619f6711e6415f6a3be210814260405161027d9291906104dc565b60405180910390a150565b8280546102949061060c565b90600052602060002090601f0160209004810192826102b657600085556102fd565b82601f106102cf57805160ff19168380011785556102fd565b828001600101855582156102fd579182015b828111156102fc5782518255916020019190600101906102e1565b5b50905061030a919061030e565b5090565b5b8082111561032757600081600090555060010161030f565b5090565b600061033e6103398461055d565b61052c565b90508281526020810184848401111561035657600080fd5b6103618482856105ca565b509392505050565b600082601f83011261037a57600080fd5b813561038a84826020860161032b565b91505092915050565b6000602082840312156103a557600080fd5b600082013567ffffffffffffffff8111156103bf57600080fd5b6103cb84828501610369565b91505092915050565b6103dd816105b4565b82525050565b60006103ee8261058d565b6103f88185610598565b93506104088185602086016105d9565b6104118161069c565b840191505092915050565b60006104278261058d565b61043181856105a9565b93506104418185602086016105d9565b80840191505092915050565b600061045a601883610598565b91507f446f63756d656e7420616c7265616479206578697374732100000000000000006000830152602082019050919050565b610496816105c0565b82525050565b60006104a8828461041c565b915081905092915050565b60006040820190506104c860008301856103d4565b6104d5602083018461048d565b9392505050565b600060408201905081810360008301526104f681856103e3565b9050610505602083018461048d565b9392505050565b600060208201905081810360008301526105258161044d565b9050919050565b6000604051905081810181811067ffffffffffffffff821117156105535761055261066d565b5b8060405250919050565b600067ffffffffffffffff8211156105785761057761066d565b5b601f19601f8301169050602081019050919050565b600081519050919050565b600082825260208201905092915050565b600081905092915050565b60008115159050919050565b6000819050919050565b82818337600083830152505050565b60005b838110156105f75780820151818401526020810190506105dc565b83811115610606576000848401525b50505050565b6000600282049050600182168061062457607f821691505b602082108114156106385761063761063e565b5b50919050565b7f4e487b7100000000000000000000000000000000000000000000000000000000600052602260045260246000fd5b7f4e487b7100000000000000000000000000000000000000000000000000000000600052604160045260246000fd5b6000601f19601f830116905091905056fea264697066735822122065d06300b56e3fcfdc9e1a144f2fd2f3d79449c3b200d26b25b5dda024aadce164736f6c63430008000033",
  "immutableReferences": {},
  "source": "// SPDX-License-Identifier: MIT\r\npragma solidity ^0.8.0;\r\n\r\ncontract DocumentVerification {\r\n    struct Document {\r\n        string fileHash;\r\n        uint256 timestamp;\r\n    }\r\n\r\n    mapping(string => Document) private documents;\r\n\r\n    event DocumentAdded(string fileHash, uint256 timestamp);\r\n\r\n    function addDocument(string memory _fileHash) public {\r\n        require(bytes(documents[_fileHash].fileHash).length == 0, \"Document already exists!\");\r\n\r\n        documents[_fileHash] = Document({\r\n            fileHash: _fileHash,\r\n            timestamp: block.timestamp\r\n        });\r\n\r\n        emit DocumentAdded(_fileHash, block.timestamp);\r\n    }\r\n\r\n    function verifyDocument(string memory _fileHash) public view returns (bool, uint256) {\r\n        Document memory doc = documents[_fileHash];\r\n        if (bytes(doc.fileHash).length == 0) {\r\n            return (false, 0);\r\n        }\r\n        return (true, doc.timestamp);\r\n    }\r\n}\r\n",
  "sourcePath": "D:\\document_verification_v1\\contracts\\DocumentVerification.sol",
  "compiler": {
    "name": "solc",
    "version": "0.8.0+commit.c7dfd78e.Emscripten.clang"
  },
  "schemaVersion": "3.4.16",
  "updatedAt": "2025-03-22T13:17:37.666Z",
  "networkType": "ethereum",
  "devdoc": {
    "kind": "dev",
    "methods": {},
    "version": 1
  },
  "userdoc": {
    "kind": "user",
    "methods": {},
    "version": 1
  }
}